{
  "contractName": "GravatarRegistry",
  "abi": [
    {
      "anonymous": false,
      "inputs": [
        {
          "indexed": false,
          "internalType": "uint256",
          "name": "id",
          "type": "uint256"
        },
        {
          "indexed": false,
          "internalType": "address",
          "name": "owner",
          "type": "address"
        },
        {
          "indexed": false,
          "internalType": "string",
          "name": "displayName",
          "type": "string"
        },
        {
          "indexed": false,
          "internalType": "string",
          "name": "imageUrl",
          "type": "string"
        }
      ],
      "name": "NewGravatar",
      "type": "event"
    },
    {
      "anonymous": false,
      "inputs": [
        {
          "indexed": false,
          "internalType": "uint256",
          "name": "id",
          "type": "uint256"
        },
        {
          "indexed": false,
          "internalType": "address",
          "name": "owner",
          "type": "address"
        },
        {
          "indexed": false,
          "internalType": "string",
          "name": "displayName",
          "type": "string"
        },
        {
          "indexed": false,
          "internalType": "string",
          "name": "imageUrl",
          "type": "string"
        }
      ],
      "name": "UpdatedGravatar",
      "type": "event"
    },
    {
      "inputs": [
        {
          "internalType": "uint256",
          "name": "",
          "type": "uint256"
        }
      ],
      "name": "gravatarToOwner",
      "outputs": [
        {
          "internalType": "address",
          "name": "",
          "type": "address"
        }
      ],
      "stateMutability": "view",
      "type": "function",
      "constant": true
    },
    {
      "inputs": [
        {
          "internalType": "uint256",
          "name": "",
          "type": "uint256"
        }
      ],
      "name": "gravatars",
      "outputs": [
        {
          "internalType": "address",
          "name": "owner",
          "type": "address"
        },
        {
          "internalType": "string",
          "name": "displayName",
          "type": "string"
        },
        {
          "internalType": "string",
          "name": "imageUrl",
          "type": "string"
        }
      ],
      "stateMutability": "view",
      "type": "function",
      "constant": true
    },
    {
      "inputs": [
        {
          "internalType": "address",
          "name": "",
          "type": "address"
        }
      ],
      "name": "ownerToGravatar",
      "outputs": [
        {
          "internalType": "uint256",
          "name": "",
          "type": "uint256"
        }
      ],
      "stateMutability": "view",
      "type": "function",
      "constant": true
    },
    {
      "inputs": [
        {
          "internalType": "string",
          "name": "_displayName",
          "type": "string"
        },
        {
          "internalType": "string",
          "name": "_imageUrl",
          "type": "string"
        }
      ],
      "name": "createGravatar",
      "outputs": [],
      "stateMutability": "nonpayable",
      "type": "function"
    },
    {
      "inputs": [
        {
          "internalType": "address",
          "name": "owner",
          "type": "address"
        }
      ],
      "name": "getGravatar",
      "outputs": [
        {
          "internalType": "string",
          "name": "",
          "type": "string"
        },
        {
          "internalType": "string",
          "name": "",
          "type": "string"
        }
      ],
      "stateMutability": "view",
      "type": "function",
      "constant": true
    },
    {
      "inputs": [
        {
          "internalType": "string",
          "name": "_displayName",
          "type": "string"
        }
      ],
      "name": "updateGravatarName",
      "outputs": [],
      "stateMutability": "nonpayable",
      "type": "function"
    },
    {
      "inputs": [
        {
          "internalType": "string",
          "name": "_imageUrl",
          "type": "string"
        }
      ],
      "name": "updateGravatarImage",
      "outputs": [],
      "stateMutability": "nonpayable",
      "type": "function"
    },
    {
      "inputs": [],
      "name": "setMythicalGravatar",
      "outputs": [],
      "stateMutability": "nonpayable",
      "type": "function"
    }
  ],
  "bytecode": "0x608060405234801561001057600080fd5b50611550806100206000396000f3fe608060405234801561001057600080fd5b50600436106100875760003560e01c8063a5ac36341161005b578063a5ac3634146102d2578063b18588fb1461032a578063cdb3344a146103e5578063d5ce24ed1461053757610087565b806281d6e51461008c5780631d4f2c6d14610147578063359c1f721461015157806388d0d3911461027a575b600080fd5b610145600480360360208110156100a257600080fd5b81019080803590602001906401000000008111156100bf57600080fd5b8201836020820111156100d157600080fd5b803590602001918460018302840111640100000000831117156100f357600080fd5b91908080601f016020809104026020016040519081016040528093929190818152602001838380828437600081840152601f19601f820116905080830192505050505050509192919290505050610667565b005b61014f61094d565b005b6101936004803603602081101561016757600080fd5b81019080803573ffffffffffffffffffffffffffffffffffffffff169060200190929190505050610ae5565b604051808060200180602001838103835285818151815260200191508051906020019080838360005b838110156101d75780820151818401526020810190506101bc565b50505050905090810190601f1680156102045780820380516001836020036101000a031916815260200191505b50838103825284818151815260200191508051906020019080838360005b8381101561023d578082015181840152602081019050610222565b50505050905090810190601f16801561026a5780820380516001836020036101000a031916815260200191505b5094505050505060405180910390f35b6102a66004803603602081101561029057600080fd5b8101908080359060200190929190505050610caa565b604051808273ffffffffffffffffffffffffffffffffffffffff16815260200191505060405180910390f35b610314600480360360208110156102e857600080fd5b81019080803573ffffffffffffffffffffffffffffffffffffffff169060200190929190505050610cdd565b6040518082815260200191505060405180910390f35b6103e36004803603602081101561034057600080fd5b810190808035906020019064010000000081111561035d57600080fd5b82018360208201111561036f57600080fd5b8035906020019184600183028401116401000000008311171561039157600080fd5b91908080601f016020809104026020016040519081016040528093929190818152602001838380828437600081840152601f19601f820116905080830192505050505050509192919290505050610cf5565b005b610535600480360360408110156103fb57600080fd5b810190808035906020019064010000000081111561041857600080fd5b82018360208201111561042a57600080fd5b8035906020019184600183028401116401000000008311171561044c57600080fd5b91908080601f016020809104026020016040519081016040528093929190818152602001838380828437600081840152601f19601f820116905080830192505050505050509192919290803590602001906401000000008111156104af57600080fd5b8201836020820111156104c157600080fd5b803590602001918460018302840111640100000000831117156104e357600080fd5b91908080601f016020809104026020016040519081016040528093929190818152602001838380828437600081840152601f19601f820116905080830192505050505050509192919290505050610fdb565b005b6105636004803603602081101561054d57600080fd5b81019080803590602001909291905050506112e5565b604051808473ffffffffffffffffffffffffffffffffffffffff1681526020018060200180602001838103835285818151815260200191508051906020019080838360005b838110156105c35780820151818401526020810190506105a8565b50505050905090810190601f1680156105f05780820380516001836020036101000a031916815260200191505b50838103825284818151815260200191508051906020019080838360005b8381101561062957808201518184015260208101905061060e565b50505050905090810190601f1680156106565780820380516001836020036101000a031916815260200191505b509550505050505060405180910390f35b6000600260003373ffffffffffffffffffffffffffffffffffffffff1673ffffffffffffffffffffffffffffffffffffffff1681526020019081526020016000205414156106b457600080fd5b6000600260003373ffffffffffffffffffffffffffffffffffffffff1673ffffffffffffffffffffffffffffffffffffffff168152602001908152602001600020548154811061070057fe5b906000526020600020906003020160000160009054906101000a900473ffffffffffffffffffffffffffffffffffffffff1673ffffffffffffffffffffffffffffffffffffffff163373ffffffffffffffffffffffffffffffffffffffff161461076957600080fd5b6000600260003373ffffffffffffffffffffffffffffffffffffffff1673ffffffffffffffffffffffffffffffffffffffff16815260200190815260200160002054905081600082815481106107bb57fe5b906000526020600020906003020160020190805190602001906107df92919061146f565b507f76571b7a897a1509c641587568218a290018fbdc8b9a724f17b77ff0eec22c0c81336000848154811061081057fe5b906000526020600020906003020160010185604051808581526020018473ffffffffffffffffffffffffffffffffffffffff16815260200180602001806020018381038352858181546001816001161561010002031660029004815260200191508054600181600116156101000203166002900480156108d15780601f106108a6576101008083540402835291602001916108d1565b820191906000526020600020905b8154815290600101906020018083116108b457829003601f168201915b5050838103825284818151815260200191508051906020019080838360005b8381101561090b5780820151818401526020810190506108f0565b50505050905090810190601f1680156109385780820380516001836020036101000a031916815260200191505b50965050505050505060405180910390a15050565b739ce2a03a7a258fb96d04afb8dd84b69a748b595973ffffffffffffffffffffffffffffffffffffffff163373ffffffffffffffffffffffffffffffffffffffff161461099957600080fd5b60006040518060600160405280600073ffffffffffffffffffffffffffffffffffffffff1681526020016040518060400160405280600181526020017f200000000000000000000000000000000000000000000000000000000000000081525081526020016040518060400160405280600181526020017f2000000000000000000000000000000000000000000000000000000000000000815250815250908060018154018082558091505060019003906000526020600020906003020160009091909190915060008201518160000160006101000a81548173ffffffffffffffffffffffffffffffffffffffff021916908373ffffffffffffffffffffffffffffffffffffffff1602179055506020820151816001019080519060200190610ac392919061146f565b506040820151816002019080519060200190610ae092919061146f565b505050565b6060806000600260008573ffffffffffffffffffffffffffffffffffffffff1673ffffffffffffffffffffffffffffffffffffffff16815260200190815260200160002054905060008181548110610b3957fe5b906000526020600020906003020160010160008281548110610b5757fe5b9060005260206000209060030201600201818054600181600116156101000203166002900480601f016020809104026020016040519081016040528092919081815260200182805460018160011615610100020316600290048015610bfd5780601f10610bd257610100808354040283529160200191610bfd565b820191906000526020600020905b815481529060010190602001808311610be057829003601f168201915b50505050509150808054600181600116156101000203166002900480601f016020809104026020016040519081016040528092919081815260200182805460018160011615610100020316600290048015610c995780601f10610c6e57610100808354040283529160200191610c99565b820191906000526020600020905b815481529060010190602001808311610c7c57829003601f168201915b505050505090509250925050915091565b60016020528060005260406000206000915054906101000a900473ffffffffffffffffffffffffffffffffffffffff1681565b60026020528060005260406000206000915090505481565b6000600260003373ffffffffffffffffffffffffffffffffffffffff1673ffffffffffffffffffffffffffffffffffffffff168152602001908152602001600020541415610d4257600080fd5b6000600260003373ffffffffffffffffffffffffffffffffffffffff1673ffffffffffffffffffffffffffffffffffffffff1681526020019081526020016000205481548110610d8e57fe5b906000526020600020906003020160000160009054906101000a900473ffffffffffffffffffffffffffffffffffffffff1673ffffffffffffffffffffffffffffffffffffffff163373ffffffffffffffffffffffffffffffffffffffff1614610df757600080fd5b6000600260003373ffffffffffffffffffffffffffffffffffffffff1673ffffffffffffffffffffffffffffffffffffffff1681526020019081526020016000205490508160008281548110610e4957fe5b90600052602060002090600302016001019080519060200190610e6d92919061146f565b507f76571b7a897a1509c641587568218a290018fbdc8b9a724f17b77ff0eec22c0c81338460008581548110610e9f57fe5b9060005260206000209060030201600201604051808581526020018473ffffffffffffffffffffffffffffffffffffffff1681526020018060200180602001838103835285818151815260200191508051906020019080838360005b83811015610f16578082015181840152602081019050610efb565b50505050905090810190601f168015610f435780820380516001836020036101000a031916815260200191505b50838103825284818154600181600116156101000203166002900481526020019150805460018160011615610100020316600290048015610fc55780601f10610f9a57610100808354040283529160200191610fc5565b820191906000526020600020905b815481529060010190602001808311610fa857829003601f168201915b5050965050505050505060405180910390a15050565b6000600260003373ffffffffffffffffffffffffffffffffffffffff1673ffffffffffffffffffffffffffffffffffffffff168152602001908152602001600020541461102757600080fd5b600060405180606001604052803373ffffffffffffffffffffffffffffffffffffffff168152602001848152602001838152509050600080805490509050600082908060018154018082558091505060019003906000526020600020906003020160009091909190915060008201518160000160006101000a81548173ffffffffffffffffffffffffffffffffffffffff021916908373ffffffffffffffffffffffffffffffffffffffff16021790555060208201518160010190805190602001906110f492919061146f565b50604082015181600201908051906020019061111192919061146f565b505050600181039050336001600083815260200190815260200160002060006101000a81548173ffffffffffffffffffffffffffffffffffffffff021916908373ffffffffffffffffffffffffffffffffffffffff16021790555080600260003373ffffffffffffffffffffffffffffffffffffffff1673ffffffffffffffffffffffffffffffffffffffff168152602001908152602001600020819055507f9ab3aefb2ba6dc12910ac1bce4692cf5c3c0d06cff16327c64a3ef78228b130b81338686604051808581526020018473ffffffffffffffffffffffffffffffffffffffff1681526020018060200180602001838103835285818151815260200191508051906020019080838360005b8381101561123b578082015181840152602081019050611220565b50505050905090810190601f1680156112685780820380516001836020036101000a031916815260200191505b50838103825284818151815260200191508051906020019080838360005b838110156112a1578082015181840152602081019050611286565b50505050905090810190601f1680156112ce5780820380516001836020036101000a031916815260200191505b50965050505050505060405180910390a150505050565b600081815481106112f557600080fd5b90600052602060002090600302016000915090508060000160009054906101000a900473ffffffffffffffffffffffffffffffffffffffff1690806001018054600181600116156101000203166002900480601f0160208091040260200160405190810160405280929190818152602001828054600181600116156101000203166002900480156113c75780601f1061139c576101008083540402835291602001916113c7565b820191906000526020600020905b8154815290600101906020018083116113aa57829003601f168201915b505050505090806002018054600181600116156101000203166002900480601f0160208091040260200160405190810160405280929190818152602001828054600181600116156101000203166002900480156114655780601f1061143a57610100808354040283529160200191611465565b820191906000526020600020905b81548152906001019060200180831161144857829003601f168201915b5050505050905083565b828054600181600116156101000203166002900490600052602060002090601f0160209004810192826114a557600085556114ec565b82601f106114be57805160ff19168380011785556114ec565b828001600101855582156114ec579182015b828111156114eb5782518255916020019190600101906114d0565b5b5090506114f991906114fd565b5090565b5b808211156115165760008160009055506001016114fe565b509056fea2646970667358221220e7ecc40b13fe2af1ac761efdba548fd769c080023fdf382366944eb9b16eafa264736f6c63430007060033",
  "immutableReferences": {},
  "source": "//SPDX-License-Identifier: UNLICENSED\npragma solidity ^0.7.6;\n\ncontract GravatarRegistry {\n  event NewGravatar(uint id, address owner, string displayName, string imageUrl);\n  event UpdatedGravatar(uint id, address owner, string displayName, string imageUrl);\n\n  struct Gravatar {\n    address owner;\n    string displayName;\n    string imageUrl;\n  }\n\n  Gravatar[] public gravatars;\n\n  mapping (uint => address) public gravatarToOwner;\n  mapping (address => uint) public ownerToGravatar;\n\n  function createGravatar(string memory _displayName, string memory _imageUrl) public {\n    require(ownerToGravatar[msg.sender] == 0);\n\n    Gravatar memory newGravatar = Gravatar(msg.sender, _displayName, _imageUrl);\n    uint id = gravatars.length;\n    gravatars.push(newGravatar);\n    id = id - 1;\n\n    gravatarToOwner[id] = msg.sender;\n    ownerToGravatar[msg.sender] = id;\n\n    emit NewGravatar(id, msg.sender, _displayName, _imageUrl);\n  }\n\n  function getGravatar(address owner) public view returns (string memory, string memory) {\n    uint id = ownerToGravatar[owner];\n    return (gravatars[id].displayName, gravatars[id].imageUrl);\n  }\n\n  function updateGravatarName(string memory _displayName) public {\n    require(ownerToGravatar[msg.sender] != 0);\n    require(msg.sender == gravatars[ownerToGravatar[msg.sender]].owner);\n\n    uint id = ownerToGravatar[msg.sender];\n\n    gravatars[id].displayName = _displayName;\n    emit UpdatedGravatar(id, msg.sender, _displayName, gravatars[id].imageUrl);\n  }\n\n  function updateGravatarImage(string memory _imageUrl) public {\n    require(ownerToGravatar[msg.sender] != 0);\n    require(msg.sender == gravatars[ownerToGravatar[msg.sender]].owner);\n\n    uint id = ownerToGravatar[msg.sender];\n\n    gravatars[id].imageUrl =  _imageUrl;\n    emit UpdatedGravatar(id, msg.sender, gravatars[id].displayName, _imageUrl);\n  }\n\n  // the gravatar at position 0 of gravatars[]\n  // is fake\n  // it's a mythical gravatar\n  // that doesn't really exist\n  // dani will invoke this function once when this contract is deployed\n  // but then no more\n  function setMythicalGravatar() public {\n    require(msg.sender == 0x9CE2A03A7a258fB96d04Afb8Dd84b69A748B5959);\n    gravatars.push(Gravatar(address(0), \" \", \" \"));\n  }\n}\n",
  "sourcePath": "/Users/sukanyaparashar/Desktop/NeonLabs/Projects/graph-neon-test/contracts/Gravity.sol",
  "compiler": {
    "name": "solc",
    "version": "0.7.6+commit.7338295f.Emscripten.clang"
  },
  "schemaVersion": "3.4.13",
  "updatedAt": "2023-09-19T10:55:56.403Z",
  "networkType": "ethereum",
  "devdoc": {
    "kind": "dev",
    "methods": {},
    "version": 1
  },
  "userdoc": {
    "kind": "user",
    "methods": {},
    "version": 1
  }
}